{
  "address": "0xDDb5eDD8d22574d148f56Db089c05dCC14F5f026",
  "abi": [
    {
      "inputs": [
        {
          "internalType": "address",
          "name": "",
          "type": "address"
        }
      ],
      "name": "balances",
      "outputs": [
        {
          "internalType": "uint256",
          "name": "",
          "type": "uint256"
        }
      ],
      "stateMutability": "view",
      "type": "function"
    },
    {
      "inputs": [
        {
          "internalType": "uint256",
          "name": "_amount",
          "type": "uint256"
        }
      ],
      "name": "decreaseBalance",
      "outputs": [],
      "stateMutability": "nonpayable",
      "type": "function"
    },
    {
      "inputs": [
        {
          "internalType": "address",
          "name": "_address",
          "type": "address"
        }
      ],
      "name": "getBalances",
      "outputs": [
        {
          "internalType": "uint256",
          "name": "",
          "type": "uint256"
        }
      ],
      "stateMutability": "view",
      "type": "function"
    },
    {
      "inputs": [
        {
          "internalType": "uint256",
          "name": "_amount",
          "type": "uint256"
        }
      ],
      "name": "increaseBalance",
      "outputs": [],
      "stateMutability": "nonpayable",
      "type": "function"
    },
    {
      "inputs": [],
      "name": "owner",
      "outputs": [
        {
          "internalType": "address payable",
          "name": "",
          "type": "address"
        }
      ],
      "stateMutability": "view",
      "type": "function"
    },
    {
      "inputs": [
        {
          "internalType": "address",
          "name": "_address",
          "type": "address"
        },
        {
          "internalType": "uint256",
          "name": "_amount",
          "type": "uint256"
        }
      ],
      "name": "setBalances",
      "outputs": [],
      "stateMutability": "nonpayable",
      "type": "function"
    }
  ],
  "transactionHash": "0x986b9cb90ba016b4db31c3b494d98f37c1b4cd840243403c587da4c8cf61cbed",
  "args": [],
  "numDeployments": 1,
  "solcInputHash": "ae2f9f58840541358908acad344d2ad9",
  "bytecode": "0x6080604052348015600f57600080fd5b506108e38061001f6000396000f3fe608060405234801561001057600080fd5b50600436106100625760003560e01c806327e235e31461006757806328e69b1614610097578063392aee43146100b35780633e4ccb40146100cf5780638da5cb5b146100eb578063c84aae1714610109575b600080fd5b610081600480360381019061007c9190610585565b610139565b60405161008e91906105cb565b60405180910390f35b6100b160048036038101906100ac9190610612565b610151565b005b6100cd60048036038101906100c89190610652565b610199565b005b6100e960048036038101906100e49190610652565b6102f2565b005b6100f36103c9565b60405161010091906106a0565b60405180910390f35b610123600480360381019061011e9190610585565b6103ed565b60405161013091906105cb565b60405180910390f35b60016020528060005260406000206000915090505481565b80600160008473ffffffffffffffffffffffffffffffffffffffff1673ffffffffffffffffffffffffffffffffffffffff168152602001908152602001600020819055505050565b80600160003373ffffffffffffffffffffffffffffffffffffffff1673ffffffffffffffffffffffffffffffffffffffff16815260200190815260200160002054101561021b576040517f08c379a000000000000000000000000000000000000000000000000000000000815260040161021290610718565b60405180910390fd5b80600160003373ffffffffffffffffffffffffffffffffffffffff1673ffffffffffffffffffffffffffffffffffffffff168152602001908152602001600020600082825461026a9190610767565b925050819055506102ef6040518060400160405280600d81526020017f4e65772062616c616e63653a2000000000000000000000000000000000000000815250600160003373ffffffffffffffffffffffffffffffffffffffff1673ffffffffffffffffffffffffffffffffffffffff16815260200190815260200160002054610436565b50565b80600160003373ffffffffffffffffffffffffffffffffffffffff1673ffffffffffffffffffffffffffffffffffffffff1681526020019081526020016000206000828254610341919061079b565b925050819055506103c66040518060400160405280600d81526020017f4e65772062616c616e63653a2000000000000000000000000000000000000000815250600160003373ffffffffffffffffffffffffffffffffffffffff1673ffffffffffffffffffffffffffffffffffffffff16815260200190815260200160002054610436565b50565b60008054906101000a900473ffffffffffffffffffffffffffffffffffffffff1681565b6000600160008373ffffffffffffffffffffffffffffffffffffffff1673ffffffffffffffffffffffffffffffffffffffff168152602001908152602001600020549050919050565b6104ce828260405160240161044c92919061084e565b6040516020818303038152906040527fb60e72cc000000000000000000000000000000000000000000000000000000007bffffffffffffffffffffffffffffffffffffffffffffffffffffffff19166020820180517bffffffffffffffffffffffffffffffffffffffffffffffffffffffff83818316178352505050506104d2565b5050565b6104e9816104e16104ec61050d565b63ffffffff16565b50565b60006a636f6e736f6c652e6c6f679050600080835160208501845afa505050565b610518819050919050565b61052061087e565b565b600080fd5b600073ffffffffffffffffffffffffffffffffffffffff82169050919050565b600061055282610527565b9050919050565b61056281610547565b811461056d57600080fd5b50565b60008135905061057f81610559565b92915050565b60006020828403121561059b5761059a610522565b5b60006105a984828501610570565b91505092915050565b6000819050919050565b6105c5816105b2565b82525050565b60006020820190506105e060008301846105bc565b92915050565b6105ef816105b2565b81146105fa57600080fd5b50565b60008135905061060c816105e6565b92915050565b6000806040838503121561062957610628610522565b5b600061063785828601610570565b9250506020610648858286016105fd565b9150509250929050565b60006020828403121561066857610667610522565b5b6000610676848285016105fd565b91505092915050565b600061068a82610527565b9050919050565b61069a8161067f565b82525050565b60006020820190506106b56000830184610691565b92915050565b600082825260208201905092915050565b7f496e73756666696369656e742062616c616e6365000000000000000000000000600082015250565b60006107026014836106bb565b915061070d826106cc565b602082019050919050565b60006020820190508181036000830152610731816106f5565b9050919050565b7f4e487b7100000000000000000000000000000000000000000000000000000000600052601160045260246000fd5b6000610772826105b2565b915061077d836105b2565b925082820390508181111561079557610794610738565b5b92915050565b60006107a6826105b2565b91506107b1836105b2565b92508282019050808211156107c9576107c8610738565b5b92915050565b600081519050919050565b60005b838110156107f85780820151818401526020810190506107dd565b60008484015250505050565b6000601f19601f8301169050919050565b6000610820826107cf565b61082a81856106bb565b935061083a8185602086016107da565b61084381610804565b840191505092915050565b600060408201905081810360008301526108688185610815565b905061087760208301846105bc565b9392505050565b7f4e487b7100000000000000000000000000000000000000000000000000000000600052605160045260246000fdfea264697066735822122074e7f4f26091990a911ea0f7c3fb84e38b81ea15d357dc903644b771b994bcc164736f6c634300081c0033",
  "devdoc": {
    "kind": "dev",
    "methods": {},
    "version": 1
  },
  "userdoc": {
    "kind": "user",
    "methods": {},
    "version": 1
  },
  "storageLayout": {
    "storage": [
      {
        "astId": 4,
        "contract": "contracts/SimpleBank.sol:SimpleBank",
        "label": "owner",
        "offset": 0,
        "slot": "0",
        "type": "t_address_payable"
      },
      {
        "astId": 8,
        "contract": "contracts/SimpleBank.sol:SimpleBank",
        "label": "balances",
        "offset": 0,
        "slot": "1",
        "type": "t_mapping(t_address,t_uint256)"
      }
    ],
    "types": {
      "t_address": {
        "encoding": "inplace",
        "label": "address",
        "numberOfBytes": "20"
      },
      "t_address_payable": {
        "encoding": "inplace",
        "label": "address payable",
        "numberOfBytes": "20"
      },
      "t_mapping(t_address,t_uint256)": {
        "encoding": "mapping",
        "key": "t_address",
        "label": "mapping(address => uint256)",
        "numberOfBytes": "32",
        "value": "t_uint256"
      },
      "t_uint256": {
        "encoding": "inplace",
        "label": "uint256",
        "numberOfBytes": "32"
      }
    }
  }
}